{
	"_format": "hh-sol-artifact-1",
	"contractName": "NFTMarket",
	"sourceName": "contracts/Market.sol",
	"abi": [
		{
			"inputs": [],
			"stateMutability": "nonpayable",
			"type": "constructor"
		},
		{
			"anonymous": false,
			"inputs": [
				{
					"indexed": true,
					"internalType": "bytes32",
					"name": "id",
					"type": "bytes32"
				}
			],
			"name": "ChainlinkCancelled",
			"type": "event"
		},
		{
			"anonymous": false,
			"inputs": [
				{
					"indexed": true,
					"internalType": "bytes32",
					"name": "id",
					"type": "bytes32"
				}
			],
			"name": "ChainlinkFulfilled",
			"type": "event"
		},
		{
			"anonymous": false,
			"inputs": [
				{
					"indexed": true,
					"internalType": "bytes32",
					"name": "id",
					"type": "bytes32"
				}
			],
			"name": "ChainlinkRequested",
			"type": "event"
		},
		{
			"anonymous": false,
			"inputs": [
				{
					"indexed": true,
					"internalType": "uint256",
					"name": "itemId",
					"type": "uint256"
				},
				{
					"indexed": true,
					"internalType": "address",
					"name": "nftContract",
					"type": "address"
				},
				{
					"indexed": true,
					"internalType": "uint256",
					"name": "tokenId",
					"type": "uint256"
				},
				{
					"indexed": false,
					"internalType": "address",
					"name": "seller",
					"type": "address"
				},
				{
					"indexed": false,
					"internalType": "address",
					"name": "owner",
					"type": "address"
				},
				{
					"indexed": false,
					"internalType": "uint256",
					"name": "price",
					"type": "uint256"
				},
				{
					"indexed": false,
					"internalType": "uint256",
					"name": "commission",
					"type": "uint256"
				},
				{
					"indexed": false,
					"internalType": "bool",
					"name": "isPremium",
					"type": "bool"
				},
				{
					"indexed": false,
					"internalType": "bool",
					"name": "sold",
					"type": "bool"
				}
			],
			"name": "MarketItemCreated",
			"type": "event"
		},
		{
			"anonymous": false,
			"inputs": [
				{
					"indexed": true,
					"internalType": "address",
					"name": "previousOwner",
					"type": "address"
				},
				{
					"indexed": true,
					"internalType": "address",
					"name": "newOwner",
					"type": "address"
				}
			],
			"name": "OwnershipTransferred",
			"type": "event"
		},
		{
			"inputs": [],
			"name": "FEE",
			"outputs": [
				{
					"internalType": "uint256",
					"name": "",
					"type": "uint256"
				}
			],
			"stateMutability": "view",
			"type": "function"
		},
		{
			"inputs": [],
			"name": "JOBID",
			"outputs": [
				{
					"internalType": "bytes32",
					"name": "",
					"type": "bytes32"
				}
			],
			"stateMutability": "view",
			"type": "function"
		},
		{
			"inputs": [],
			"name": "NUPAY_WALLET_ADDRESS",
			"outputs": [
				{
					"internalType": "address",
					"name": "",
					"type": "address"
				}
			],
			"stateMutability": "view",
			"type": "function"
		},
		{
			"inputs": [],
			"name": "ORACLE",
			"outputs": [
				{
					"internalType": "address",
					"name": "",
					"type": "address"
				}
			],
			"stateMutability": "view",
			"type": "function"
		},
		{
			"inputs": [
				{
					"internalType": "bytes32",
					"name": "x",
					"type": "bytes32"
				}
			],
			"name": "asciiToInteger",
			"outputs": [
				{
					"internalType": "uint256",
					"name": "",
					"type": "uint256"
				}
			],
			"stateMutability": "pure",
			"type": "function"
		},
		{
			"inputs": [
				{
					"internalType": "bytes32",
					"name": "_bytes32",
					"type": "bytes32"
				}
			],
			"name": "bytes32ToString",
			"outputs": [
				{
					"internalType": "string",
					"name": "",
					"type": "string"
				}
			],
			"stateMutability": "pure",
			"type": "function"
		},
		{
			"inputs": [],
			"name": "commissionRate",
			"outputs": [
				{
					"internalType": "uint256",
					"name": "",
					"type": "uint256"
				}
			],
			"stateMutability": "view",
			"type": "function"
		},
		{
			"inputs": [],
			"name": "commissionString",
			"outputs": [
				{
					"internalType": "bytes32",
					"name": "",
					"type": "bytes32"
				}
			],
			"stateMutability": "view",
			"type": "function"
		},
		{
			"inputs": [
				{
					"internalType": "bytes32",
					"name": "b1",
					"type": "bytes32"
				},
				{
					"internalType": "bytes32",
					"name": "b2",
					"type": "bytes32"
				}
			],
			"name": "concat",
			"outputs": [
				{
					"internalType": "bytes",
					"name": "",
					"type": "bytes"
				}
			],
			"stateMutability": "pure",
			"type": "function"
		},
		{
			"inputs": [
				{
					"internalType": "address",
					"name": "seller",
					"type": "address"
				},
				{
					"internalType": "address",
					"name": "nftContract",
					"type": "address"
				},
				{
					"internalType": "uint256",
					"name": "tokenId",
					"type": "uint256"
				},
				{
					"internalType": "uint256",
					"name": "price",
					"type": "uint256"
				},
				{
					"internalType": "uint256",
					"name": "commission",
					"type": "uint256"
				},
				{
					"internalType": "bool",
					"name": "isPremium",
					"type": "bool"
				}
			],
			"name": "createMarketItem",
			"outputs": [],
			"stateMutability": "nonpayable",
			"type": "function"
		},
		{
			"inputs": [
				{
					"internalType": "uint256",
					"name": "itemId",
					"type": "uint256"
				}
			],
			"name": "createMarketSale",
			"outputs": [],
			"stateMutability": "payable",
			"type": "function"
		},
		{
			"inputs": [],
			"name": "defaultCommissionRate",
			"outputs": [
				{
					"internalType": "uint256",
					"name": "",
					"type": "uint256"
				}
			],
			"stateMutability": "view",
			"type": "function"
		},
		{
			"inputs": [
				{
					"internalType": "uint256",
					"name": "_a",
					"type": "uint256"
				},
				{
					"internalType": "uint256",
					"name": "_b",
					"type": "uint256"
				}
			],
			"name": "doDivision",
			"outputs": [
				{
					"internalType": "uint256",
					"name": "",
					"type": "uint256"
				}
			],
			"stateMutability": "pure",
			"type": "function"
		},
		{
			"inputs": [
				{
					"internalType": "string",
					"name": "_url",
					"type": "string"
				},
				{
					"internalType": "uint256",
					"name": "itemId",
					"type": "uint256"
				}
			],
			"name": "doRequest",
			"outputs": [],
			"stateMutability": "nonpayable",
			"type": "function"
		},
		{
			"inputs": [],
			"name": "fetchAllMarketItems",
			"outputs": [
				{
					"components": [
						{
							"internalType": "uint256",
							"name": "itemId",
							"type": "uint256"
						},
						{
							"internalType": "address",
							"name": "nftContract",
							"type": "address"
						},
						{
							"internalType": "uint256",
							"name": "tokenId",
							"type": "uint256"
						},
						{
							"internalType": "address payable",
							"name": "seller",
							"type": "address"
						},
						{
							"internalType": "address payable",
							"name": "owner",
							"type": "address"
						},
						{
							"internalType": "uint256",
							"name": "price",
							"type": "uint256"
						},
						{
							"internalType": "uint256",
							"name": "commission",
							"type": "uint256"
						},
						{
							"internalType": "bool",
							"name": "isPremium",
							"type": "bool"
						},
						{
							"internalType": "bool",
							"name": "sold",
							"type": "bool"
						}
					],
					"internalType": "struct NFTMarket.MarketItem[]",
					"name": "",
					"type": "tuple[]"
				}
			],
			"stateMutability": "view",
			"type": "function"
		},
		{
			"inputs": [],
			"name": "fetchItemsCreated",
			"outputs": [
				{
					"components": [
						{
							"internalType": "uint256",
							"name": "itemId",
							"type": "uint256"
						},
						{
							"internalType": "address",
							"name": "nftContract",
							"type": "address"
						},
						{
							"internalType": "uint256",
							"name": "tokenId",
							"type": "uint256"
						},
						{
							"internalType": "address payable",
							"name": "seller",
							"type": "address"
						},
						{
							"internalType": "address payable",
							"name": "owner",
							"type": "address"
						},
						{
							"internalType": "uint256",
							"name": "price",
							"type": "uint256"
						},
						{
							"internalType": "uint256",
							"name": "commission",
							"type": "uint256"
						},
						{
							"internalType": "bool",
							"name": "isPremium",
							"type": "bool"
						},
						{
							"internalType": "bool",
							"name": "sold",
							"type": "bool"
						}
					],
					"internalType": "struct NFTMarket.MarketItem[]",
					"name": "",
					"type": "tuple[]"
				}
			],
			"stateMutability": "view",
			"type": "function"
		},
		{
			"inputs": [],
			"name": "fetchMarketItems",
			"outputs": [
				{
					"components": [
						{
							"internalType": "uint256",
							"name": "itemId",
							"type": "uint256"
						},
						{
							"internalType": "address",
							"name": "nftContract",
							"type": "address"
						},
						{
							"internalType": "uint256",
							"name": "tokenId",
							"type": "uint256"
						},
						{
							"internalType": "address payable",
							"name": "seller",
							"type": "address"
						},
						{
							"internalType": "address payable",
							"name": "owner",
							"type": "address"
						},
						{
							"internalType": "uint256",
							"name": "price",
							"type": "uint256"
						},
						{
							"internalType": "uint256",
							"name": "commission",
							"type": "uint256"
						},
						{
							"internalType": "bool",
							"name": "isPremium",
							"type": "bool"
						},
						{
							"internalType": "bool",
							"name": "sold",
							"type": "bool"
						}
					],
					"internalType": "struct NFTMarket.MarketItem[]",
					"name": "",
					"type": "tuple[]"
				}
			],
			"stateMutability": "view",
			"type": "function"
		},
		{
			"inputs": [
				{
					"internalType": "uint256",
					"name": "requestedTokenId",
					"type": "uint256"
				}
			],
			"name": "fetchMarketItemsByTokenId",
			"outputs": [
				{
					"components": [
						{
							"internalType": "uint256",
							"name": "itemId",
							"type": "uint256"
						},
						{
							"internalType": "address",
							"name": "nftContract",
							"type": "address"
						},
						{
							"internalType": "uint256",
							"name": "tokenId",
							"type": "uint256"
						},
						{
							"internalType": "address payable",
							"name": "seller",
							"type": "address"
						},
						{
							"internalType": "address payable",
							"name": "owner",
							"type": "address"
						},
						{
							"internalType": "uint256",
							"name": "price",
							"type": "uint256"
						},
						{
							"internalType": "uint256",
							"name": "commission",
							"type": "uint256"
						},
						{
							"internalType": "bool",
							"name": "isPremium",
							"type": "bool"
						},
						{
							"internalType": "bool",
							"name": "sold",
							"type": "bool"
						}
					],
					"internalType": "struct NFTMarket.MarketItem[]",
					"name": "",
					"type": "tuple[]"
				}
			],
			"stateMutability": "view",
			"type": "function"
		},
		{
			"inputs": [],
			"name": "fetchMyNFTs",
			"outputs": [
				{
					"components": [
						{
							"internalType": "uint256",
							"name": "itemId",
							"type": "uint256"
						},
						{
							"internalType": "address",
							"name": "nftContract",
							"type": "address"
						},
						{
							"internalType": "uint256",
							"name": "tokenId",
							"type": "uint256"
						},
						{
							"internalType": "address payable",
							"name": "seller",
							"type": "address"
						},
						{
							"internalType": "address payable",
							"name": "owner",
							"type": "address"
						},
						{
							"internalType": "uint256",
							"name": "price",
							"type": "uint256"
						},
						{
							"internalType": "uint256",
							"name": "commission",
							"type": "uint256"
						},
						{
							"internalType": "bool",
							"name": "isPremium",
							"type": "bool"
						},
						{
							"internalType": "bool",
							"name": "sold",
							"type": "bool"
						}
					],
					"internalType": "struct NFTMarket.MarketItem[]",
					"name": "",
					"type": "tuple[]"
				}
			],
			"stateMutability": "view",
			"type": "function"
		},
		{
			"inputs": [
				{
					"internalType": "uint256",
					"name": "itemId",
					"type": "uint256"
				}
			],
			"name": "fetchSpecificMarketItem",
			"outputs": [
				{
					"components": [
						{
							"internalType": "uint256",
							"name": "itemId",
							"type": "uint256"
						},
						{
							"internalType": "address",
							"name": "nftContract",
							"type": "address"
						},
						{
							"internalType": "uint256",
							"name": "tokenId",
							"type": "uint256"
						},
						{
							"internalType": "address payable",
							"name": "seller",
							"type": "address"
						},
						{
							"internalType": "address payable",
							"name": "owner",
							"type": "address"
						},
						{
							"internalType": "uint256",
							"name": "price",
							"type": "uint256"
						},
						{
							"internalType": "uint256",
							"name": "commission",
							"type": "uint256"
						},
						{
							"internalType": "bool",
							"name": "isPremium",
							"type": "bool"
						},
						{
							"internalType": "bool",
							"name": "sold",
							"type": "bool"
						}
					],
					"internalType": "struct NFTMarket.MarketItem",
					"name": "",
					"type": "tuple"
				}
			],
			"stateMutability": "view",
			"type": "function"
		},
		{
			"inputs": [
				{
					"internalType": "bytes32",
					"name": "_requestId",
					"type": "bytes32"
				},
				{
					"internalType": "bytes32",
					"name": "_commission",
					"type": "bytes32"
				}
			],
			"name": "fulfill",
			"outputs": [],
			"stateMutability": "nonpayable",
			"type": "function"
		},
		{
			"inputs": [],
			"name": "isPremiumBytes",
			"outputs": [
				{
					"internalType": "bytes32",
					"name": "",
					"type": "bytes32"
				}
			],
			"stateMutability": "view",
			"type": "function"
		},
		{
			"inputs": [],
			"name": "lastItemId",
			"outputs": [
				{
					"internalType": "uint256",
					"name": "",
					"type": "uint256"
				}
			],
			"stateMutability": "view",
			"type": "function"
		},
		{
			"inputs": [],
			"name": "lastRequestId",
			"outputs": [
				{
					"internalType": "bytes32",
					"name": "",
					"type": "bytes32"
				}
			],
			"stateMutability": "view",
			"type": "function"
		},
		{
			"inputs": [],
			"name": "owner",
			"outputs": [
				{
					"internalType": "address",
					"name": "",
					"type": "address"
				}
			],
			"stateMutability": "view",
			"type": "function"
		},
		{
			"inputs": [],
			"name": "renounceOwnership",
			"outputs": [],
			"stateMutability": "nonpayable",
			"type": "function"
		},
		{
			"inputs": [
				{
					"internalType": "address",
					"name": "_address",
					"type": "address"
				}
			],
			"name": "setCommissionWalletAddress",
			"outputs": [],
			"stateMutability": "nonpayable",
			"type": "function"
		},
		{
			"inputs": [
				{
					"internalType": "bytes32",
					"name": "_jobId",
					"type": "bytes32"
				}
			],
			"name": "setJobId",
			"outputs": [],
			"stateMutability": "nonpayable",
			"type": "function"
		},
		{
			"inputs": [
				{
					"internalType": "address",
					"name": "_oracle",
					"type": "address"
				}
			],
			"name": "setOracle",
			"outputs": [],
			"stateMutability": "nonpayable",
			"type": "function"
		},
		{
			"inputs": [
				{
					"internalType": "string",
					"name": "source",
					"type": "string"
				}
			],
			"name": "stringToBytes32",
			"outputs": [
				{
					"internalType": "bytes32",
					"name": "result",
					"type": "bytes32"
				}
			],
			"stateMutability": "pure",
			"type": "function"
		},
		{
			"inputs": [],
			"name": "tempString",
			"outputs": [
				{
					"internalType": "string",
					"name": "",
					"type": "string"
				}
			],
			"stateMutability": "view",
			"type": "function"
		},
		{
			"inputs": [
				{
					"internalType": "uint256",
					"name": "_testCommissionRate",
					"type": "uint256"
				},
				{
					"internalType": "uint256",
					"name": "_testValue",
					"type": "uint256"
				}
			],
			"name": "testCommission",
			"outputs": [
				{
					"components": [
						{
							"internalType": "uint256",
							"name": "totalSent",
							"type": "uint256"
						},
						{
							"internalType": "uint256",
							"name": "testCommission",
							"type": "uint256"
						},
						{
							"internalType": "uint256",
							"name": "ourShare",
							"type": "uint256"
						},
						{
							"internalType": "uint256",
							"name": "sellerShare",
							"type": "uint256"
						}
					],
					"internalType": "struct NFTMarket.TestCommission",
					"name": "",
					"type": "tuple"
				}
			],
			"stateMutability": "pure",
			"type": "function"
		},
		{
			"inputs": [
				{
					"internalType": "address",
					"name": "newOwner",
					"type": "address"
				}
			],
			"name": "transferOwnership",
			"outputs": [],
			"stateMutability": "nonpayable",
			"type": "function"
		}
	],
	"bytecode": "0x608060405260016005556000600b556000600d5560405180602001604052806000815250601590805190602001906200003a92919062000379565b5060405180602001604052806000815250601690805190602001906200006292919062000379565b5060405180602001604052806000815250601790805190602001906200008a92919062000379565b503480156200009857600080fd5b506001600081905550620000c1620000b5620001bf60201b60201c565b620001c760201b60201c565b620000d16200028d60201b60201c565b73998f5a6bef4081badfeecb4103d09c713bc56508601160006101000a81548173ffffffffffffffffffffffffffffffffffffffff021916908373ffffffffffffffffffffffffffffffffffffffff160217905550739c0383de842a3a0f403b0021f6f85756524d5599600e60006101000a81548173ffffffffffffffffffffffffffffffffffffffff021916908373ffffffffffffffffffffffffffffffffffffffff1602179055507f6234663136366234633935353439336638303235386161613063353138316165600f81905550670de0b6b3a7640000601081905550600a600c819055506200052a565b600033905090565b6000600760009054906101000a900473ffffffffffffffffffffffffffffffffffffffff16905081600760006101000a81548173ffffffffffffffffffffffffffffffffffffffff021916908373ffffffffffffffffffffffffffffffffffffffff1602179055508173ffffffffffffffffffffffffffffffffffffffff168173ffffffffffffffffffffffffffffffffffffffff167f8be0079c531659141344cd1fd0a4f28419497f9722a3daafe3b4186f6b6457e060405160405180910390a35050565b6200033373c89bd4e1632d3a43cb03aaad5262cbe4038bc57173ffffffffffffffffffffffffffffffffffffffff166338cc48316040518163ffffffff1660e01b815260040160206040518083038186803b158015620002ec57600080fd5b505afa15801562000301573d6000803e3d6000fd5b505050506040513d601f19601f8201168201806040525081019062000327919062000493565b6200033560201b60201c565b565b80600360006101000a81548173ffffffffffffffffffffffffffffffffffffffff021916908373ffffffffffffffffffffffffffffffffffffffff16021790555050565b8280546200038790620004f4565b90600052602060002090601f016020900481019282620003ab5760008555620003f7565b82601f10620003c657805160ff1916838001178555620003f7565b82800160010185558215620003f7579182015b82811115620003f6578251825591602001919060010190620003d9565b5b5090506200040691906200040a565b5090565b5b80821115620004255760008160009055506001016200040b565b5090565b600080fd5b600073ffffffffffffffffffffffffffffffffffffffff82169050919050565b60006200045b826200042e565b9050919050565b6200046d816200044e565b81146200047957600080fd5b50565b6000815190506200048d8162000462565b92915050565b600060208284031215620004ac57620004ab62000429565b5b6000620004bc848285016200047c565b91505092915050565b7f4e487b7100000000000000000000000000000000000000000000000000000000600052602260045260246000fd5b600060028204905060018216806200050d57607f821691505b60208210811415620005245762000523620004c5565b5b50919050565b614f60806200053a6000396000f3fe6080604052600436106101ee5760003560e01c80638da5cb5b1161010d578063c57981b5116100a0578063dfb6452b1161006f578063dfb6452b1461070a578063e0d93e6914610735578063f064c32e1461075e578063f2fde38b14610789578063fc2a88c3146107b2576101ee565b8063c57981b51461064c578063cfb5192814610677578063d85d859e146106b4578063de72ece3146106df576101ee565b80639986e1d8116100dc5780639986e1d81461058b57806399b2c1c7146105b6578063be9af536146105f3578063c549a50e1461060f576101ee565b80638da5cb5b146104a95780639201de55146104d457806395786bd9146105115780639938b6e91461054e576101ee565b8063508954f811610185578063715018a611610154578063715018a6146104015780637adbf973146104185780637b5579a4146104415780637b9e62001461046c576101ee565b8063508954f814610345578063519659271461036e5780635ea1d6f81461039957806364ccce6e146103c4576101ee565b806333e62b5f116101c157806333e62b5f1461029d57806338013f02146102c65780633fd04d20146102f15780634c4b94331461031c576101ee565b8063042f2b65146101f35780630f08efe01461021c578063202e37401461024757806327e7a17814610272575b600080fd5b3480156101ff57600080fd5b5061021a60048036038101906102159190613b0c565b6107dd565b005b34801561022857600080fd5b50610231610b6b565b60405161023e9190613d49565b60405180910390f35b34801561025357600080fd5b5061025c610e5b565b6040516102699190613d49565b60405180910390f35b34801561027e57600080fd5b506102876111cf565b6040516102949190613d7a565b60405180910390f35b3480156102a957600080fd5b506102c460048036038101906102bf9190613e19565b6111d5565b005b3480156102d257600080fd5b506102db61142e565b6040516102e89190613eb5565b60405180910390f35b3480156102fd57600080fd5b50610306611454565b6040516103139190613edf565b60405180910390f35b34801561032857600080fd5b50610343600480360381019061033e9190614040565b61145a565b005b34801561035157600080fd5b5061036c6004803603810190610367919061409c565b611618565b005b34801561037a57600080fd5b5061038361169e565b6040516103909190613edf565b60405180910390f35b3480156103a557600080fd5b506103ae6116a4565b6040516103bb9190613edf565b60405180910390f35b3480156103d057600080fd5b506103eb60048036038101906103e691906140c9565b6116aa565b6040516103f89190613d49565b60405180910390f35b34801561040d57600080fd5b5061041661198d565b005b34801561042457600080fd5b5061043f600480360381019061043a91906140f6565b611a15565b005b34801561044d57600080fd5b50610456611ad5565b6040516104639190613d7a565b60405180910390f35b34801561047857600080fd5b50610493600480360381019061048e9190613b0c565b611adb565b6040516104a091906141ab565b60405180910390f35b3480156104b557600080fd5b506104be611b45565b6040516104cb9190613eb5565b60405180910390f35b3480156104e057600080fd5b506104fb60048036038101906104f6919061409c565b611b6f565b6040516105089190614222565b60405180910390f35b34801561051d57600080fd5b5061053860048036038101906105339190614244565b611d0a565b60405161054591906142d9565b60405180910390f35b34801561055a57600080fd5b50610575600480360381019061057091906140c9565b611d8d565b60405161058291906143ab565b60405180910390f35b34801561059757600080fd5b506105a0611f8f565b6040516105ad9190613eb5565b60405180910390f35b3480156105c257600080fd5b506105dd60048036038101906105d8919061409c565b611fb5565b6040516105ea9190613edf565b60405180910390f35b61060d600480360381019061060891906140c9565b61204f565b005b34801561061b57600080fd5b5061063660048036038101906106319190614244565b612409565b6040516106439190613edf565b60405180910390f35b34801561065857600080fd5b5061066161243a565b60405161066e9190613edf565b60405180910390f35b34801561068357600080fd5b5061069e600480360381019061069991906143c7565b612440565b6040516106ab9190613d7a565b60405180910390f35b3480156106c057600080fd5b506106c961246a565b6040516106d69190614222565b60405180910390f35b3480156106eb57600080fd5b506106f46124f8565b6040516107019190613d7a565b60405180910390f35b34801561071657600080fd5b5061071f6124fe565b60405161072c9190613d49565b60405180910390f35b34801561074157600080fd5b5061075c600480360381019061075791906140f6565b612753565b005b34801561076a57600080fd5b50610773612813565b6040516107809190613d49565b60405180910390f35b34801561079557600080fd5b506107b060048036038101906107ab91906140f6565b612b87565b005b3480156107be57600080fd5b506107c7612c7f565b6040516107d49190613d7a565b60405180910390f35b816006600082815260200190815260200160002060009054906101000a900473ffffffffffffffffffffffffffffffffffffffff1673ffffffffffffffffffffffffffffffffffffffff163373ffffffffffffffffffffffffffffffffffffffff161461087f576040517f08c379a000000000000000000000000000000000000000000000000000000000815260040161087690614482565b60405180910390fd5b6006600082815260200190815260200160002060006101000a81549073ffffffffffffffffffffffffffffffffffffffff0219169055807f7cc135e0cebb02c3480ae5d74d377283180a2601f8f644edf7987b009316c63a60405160405180910390a281600b819055503073ffffffffffffffffffffffffffffffffffffffff16639201de55836040518263ffffffff1660e01b81526004016109229190613d7a565b60006040518083038186803b15801561093a57600080fd5b505afa15801561094e573d6000803e3d6000fd5b505050506040513d6000823e3d601f19601f820116820180604052508101906109779190614512565b6014908051906020019061098c9291906138de565b506000610a586014805461099f9061458a565b80601f01602080910402602001604051908101604052809291908181526020018280546109cb9061458a565b8015610a185780601f106109ed57610100808354040283529160200191610a18565b820191906000526020600020905b8154815290600101906020018083116109fb57829003601f168201915b50505050506040518060400160405280600181526020017f7c00000000000000000000000000000000000000000000000000000000000000815250612c85565b9050610a86610a8182600081518110610a7457610a736145bc565b5b6020026020010151612440565b611fb5565b60186000601354815260200190815260200160002060060181905550610ac681600181518110610ab957610ab86145bc565b5b6020026020010151612440565b600d819055507f7072656d69756d00000000000000000000000000000000000000000000000000600d541415610b2c57600160186000601354815260200190815260200160002060070160006101000a81548160ff021916908315150217905550610b5e565b600060186000601354815260200190815260200160002060070160006101000a81548160ff0219169083151502179055505b8360128190555050505050565b60606000610b796008612eef565b90506000610b876009612eef565b610b916008612eef565b610b9b919061461a565b90506000808267ffffffffffffffff811115610bba57610bb9613f15565b5b604051908082528060200260200182016040528015610bf357816020015b610be0613964565b815260200190600190039081610bd85790505b50905060005b84811015610e5057600073ffffffffffffffffffffffffffffffffffffffff1660186000600184610c2a919061464e565b815260200190815260200160002060040160009054906101000a900473ffffffffffffffffffffffffffffffffffffffff1673ffffffffffffffffffffffffffffffffffffffff161415610e3d576000600182610c87919061464e565b905060006018600083815260200190815260200160002090508060405180610120016040529081600082015481526020016001820160009054906101000a900473ffffffffffffffffffffffffffffffffffffffff1673ffffffffffffffffffffffffffffffffffffffff1673ffffffffffffffffffffffffffffffffffffffff168152602001600282015481526020016003820160009054906101000a900473ffffffffffffffffffffffffffffffffffffffff1673ffffffffffffffffffffffffffffffffffffffff1673ffffffffffffffffffffffffffffffffffffffff1681526020016004820160009054906101000a900473ffffffffffffffffffffffffffffffffffffffff1673ffffffffffffffffffffffffffffffffffffffff1673ffffffffffffffffffffffffffffffffffffffff16815260200160058201548152602001600682015481526020016007820160009054906101000a900460ff161515151581526020016007820160019054906101000a900460ff161515151581525050848681518110610e2057610e1f6145bc565b5b6020026020010181905250600185610e38919061464e565b945050505b8080610e48906146a4565b915050610bf9565b508094505050505090565b60606000610e696008612eef565b905060008060005b83811015610f12573373ffffffffffffffffffffffffffffffffffffffff1660186000600184610ea1919061464e565b815260200190815260200160002060040160009054906101000a900473ffffffffffffffffffffffffffffffffffffffff1673ffffffffffffffffffffffffffffffffffffffff161415610eff57600183610efc919061464e565b92505b8080610f0a906146a4565b915050610e71565b5060008267ffffffffffffffff811115610f2f57610f2e613f15565b5b604051908082528060200260200182016040528015610f6857816020015b610f55613964565b815260200190600190039081610f4d5790505b50905060005b848110156111c4573373ffffffffffffffffffffffffffffffffffffffff1660186000600184610f9e919061464e565b815260200190815260200160002060040160009054906101000a900473ffffffffffffffffffffffffffffffffffffffff1673ffffffffffffffffffffffffffffffffffffffff1614156111b1576000600182610ffb919061464e565b905060006018600083815260200190815260200160002090508060405180610120016040529081600082015481526020016001820160009054906101000a900473ffffffffffffffffffffffffffffffffffffffff1673ffffffffffffffffffffffffffffffffffffffff1673ffffffffffffffffffffffffffffffffffffffff168152602001600282015481526020016003820160009054906101000a900473ffffffffffffffffffffffffffffffffffffffff1673ffffffffffffffffffffffffffffffffffffffff1673ffffffffffffffffffffffffffffffffffffffff1681526020016004820160009054906101000a900473ffffffffffffffffffffffffffffffffffffffff1673ffffffffffffffffffffffffffffffffffffffff1673ffffffffffffffffffffffffffffffffffffffff16815260200160058201548152602001600682015481526020016007820160009054906101000a900460ff161515151581526020016007820160019054906101000a900460ff161515151581525050848681518110611194576111936145bc565b5b60200260200101819052506001856111ac919061464e565b945050505b80806111bc906146a4565b915050610f6e565b508094505050505090565b600b5481565b6111df6008612efd565b60006111eb6008612eef565b90506040518061012001604052808281526020018773ffffffffffffffffffffffffffffffffffffffff1681526020018681526020018873ffffffffffffffffffffffffffffffffffffffff168152602001600073ffffffffffffffffffffffffffffffffffffffff168152602001858152602001848152602001831515815260200160001515815250601860008381526020019081526020016000206000820151816000015560208201518160010160006101000a81548173ffffffffffffffffffffffffffffffffffffffff021916908373ffffffffffffffffffffffffffffffffffffffff1602179055506040820151816002015560608201518160030160006101000a81548173ffffffffffffffffffffffffffffffffffffffff021916908373ffffffffffffffffffffffffffffffffffffffff16021790555060808201518160040160006101000a81548173ffffffffffffffffffffffffffffffffffffffff021916908373ffffffffffffffffffffffffffffffffffffffff16021790555060a0820151816005015560c0820151816006015560e08201518160070160006101000a81548160ff0219169083151502179055506101008201518160070160016101000a81548160ff021916908315150217905550905050848673ffffffffffffffffffffffffffffffffffffffff16827fecbc33f6e1b7df72a609c0b81c4cdbe2b2b609ec99b99618c5f4dd8839b2ae06336000898989600060405161141d969594939291906146fc565b60405180910390a450505050505050565b600e60009054906101000a900473ffffffffffffffffffffffffffffffffffffffff1681565b60135481565b6000611470600f543063042f2b6560e01b612f13565b905081601381905550826015908051906020019061148f9291906138de565b506115646040518060400160405280600381526020017f6765740000000000000000000000000000000000000000000000000000000000815250601580546114d69061458a565b80601f01602080910402602001604051908101604052809291908181526020018280546115029061458a565b801561154f5780601f106115245761010080835404028352916020019161154f565b820191906000526020600020905b81548152906001019060200180831161153257829003601f168201915b505050505083612f449092919063ffffffff16565b6115e36040518060400160405280600481526020017f70617468000000000000000000000000000000000000000000000000000000008152506040518060400160405280600681526020017f726573756c74000000000000000000000000000000000000000000000000000081525083612f449092919063ffffffff16565b611612600e60009054906101000a900473ffffffffffffffffffffffffffffffffffffffff1682601054612f77565b50505050565b611620612f97565b73ffffffffffffffffffffffffffffffffffffffff1661163e611b45565b73ffffffffffffffffffffffffffffffffffffffff1614611694576040517f08c379a000000000000000000000000000000000000000000000000000000000815260040161168b906147a9565b60405180910390fd5b80600f8190555050565b600c5481565b600a5481565b60606000806116b96008612eef565b90506000805b828110156117145785601860006001846116d9919061464e565b8152602001908152602001600020600201541415611701576001846116fe919061464e565b93505b808061170c906146a4565b9150506116bf565b5060008367ffffffffffffffff81111561173157611730613f15565b5b60405190808252806020026020018201604052801561176a57816020015b611757613964565b81526020019060019003908161174f5790505b50905060005b838110156119805760006018600060018461178b919061464e565b81526020019081526020016000206002015490508781141561196c5760006001836117b6919061464e565b905060006018600083815260200190815260200160002090508060405180610120016040529081600082015481526020016001820160009054906101000a900473ffffffffffffffffffffffffffffffffffffffff1673ffffffffffffffffffffffffffffffffffffffff1673ffffffffffffffffffffffffffffffffffffffff168152602001600282015481526020016003820160009054906101000a900473ffffffffffffffffffffffffffffffffffffffff1673ffffffffffffffffffffffffffffffffffffffff1673ffffffffffffffffffffffffffffffffffffffff1681526020016004820160009054906101000a900473ffffffffffffffffffffffffffffffffffffffff1673ffffffffffffffffffffffffffffffffffffffff1673ffffffffffffffffffffffffffffffffffffffff16815260200160058201548152602001600682015481526020016007820160009054906101000a900460ff161515151581526020016007820160019054906101000a900460ff16151515158152505085878151811061194f5761194e6145bc565b5b6020026020010181905250600186611967919061464e565b955050505b508080611978906146a4565b915050611770565b5080945050505050919050565b611995612f97565b73ffffffffffffffffffffffffffffffffffffffff166119b3611b45565b73ffffffffffffffffffffffffffffffffffffffff1614611a09576040517f08c379a0000000000000000000000000000000000000000000000000000000008152600401611a00906147a9565b60405180910390fd5b611a136000612f9f565b565b611a1d612f97565b73ffffffffffffffffffffffffffffffffffffffff16611a3b611b45565b73ffffffffffffffffffffffffffffffffffffffff1614611a91576040517f08c379a0000000000000000000000000000000000000000000000000000000008152600401611a88906147a9565b60405180910390fd5b80600e60006101000a81548173ffffffffffffffffffffffffffffffffffffffff021916908373ffffffffffffffffffffffffffffffffffffffff16021790555050565b600f5481565b60606000604067ffffffffffffffff811115611afa57611af9613f15565b5b6040519080825280601f01601f191660200182016040528015611b2c5781602001600182028036833780820191505090505b5090508360208201528260408201528091505092915050565b6000600760009054906101000a900473ffffffffffffffffffffffffffffffffffffffff16905090565b606060005b60208160ff16108015611bc65750600060f81b838260ff1660208110611b9d57611b9c6145bc565b5b1a60f81b7effffffffffffffffffffffffffffffffffffffffffffffffffffffffffffff191614155b15611bde578080611bd6906147d6565b915050611b74565b60008160ff1667ffffffffffffffff811115611bfd57611bfc613f15565b5b6040519080825280601f01601f191660200182016040528015611c2f5781602001600182028036833780820191505090505b509050600091505b60208260ff16108015611c895750600060f81b848360ff1660208110611c6057611c5f6145bc565b5b1a60f81b7effffffffffffffffffffffffffffffffffffffffffffffffffffffffffffff191614155b15611d0057838260ff1660208110611ca457611ca36145bc565b5b1a60f81b818360ff1681518110611cbe57611cbd6145bc565b5b60200101907effffffffffffffffffffffffffffffffffffffffffffffffffffffffffffff1916908160001a9053508180611cf8906147d6565b925050611c37565b8092505050919050565b611d126139f6565b600082905060008482611d259190614800565b9050606481611d349190614889565b90506000856064611d45919061461a565b83611d509190614800565b9050606481611d5f9190614889565b9050604051806080016040528084815260200187815260200183815260200182815250935050505092915050565b611d95613964565b6000611da16008612eef565b905060005b81811015611f87576000600182611dbd919061464e565b905060006018600083815260200190815260200160002060000154905085811415611f725760006018600084815260200190815260200160002060405180610120016040529081600082015481526020016001820160009054906101000a900473ffffffffffffffffffffffffffffffffffffffff1673ffffffffffffffffffffffffffffffffffffffff1673ffffffffffffffffffffffffffffffffffffffff168152602001600282015481526020016003820160009054906101000a900473ffffffffffffffffffffffffffffffffffffffff1673ffffffffffffffffffffffffffffffffffffffff1673ffffffffffffffffffffffffffffffffffffffff1681526020016004820160009054906101000a900473ffffffffffffffffffffffffffffffffffffffff1673ffffffffffffffffffffffffffffffffffffffff1673ffffffffffffffffffffffffffffffffffffffff16815260200160058201548152602001600682015481526020016007820160009054906101000a900460ff161515151581526020016007820160019054906101000a900460ff16151515158152505090508095505050505050611f8a565b50508080611f7f906146a4565b915050611da6565b50505b919050565b601160009054906101000a900473ffffffffffffffffffffffffffffffffffffffff1681565b60008060005b602081101561204557600060ff600883611fd59190614800565b8660001c901c16905080603011158015611ff0575060398111155b1561202b5781600a61200291906149ed565b60308261200f919061461a565b6120199190614800565b83612024919061464e565b9250612031565b50612045565b50808061203d906146a4565b915050611fbb565b5080915050919050565b60026000541415612095576040517f08c379a000000000000000000000000000000000000000000000000000000000815260040161208c90614a84565b60405180910390fd5b60026000819055506000601860008381526020019081526020016000206005015490508034146120fa576040517f08c379a00000000000000000000000000000000000000000000000000000000081526004016120f190614b16565b60405180910390fd5b600034905060006018600085815260200190815260200160002060070160009054906101000a900460ff169050600115158115151415612236576000829050336018600087815260200190815260200160002060040160006101000a81548173ffffffffffffffffffffffffffffffffffffffff021916908373ffffffffffffffffffffffffffffffffffffffff16021790555060016018600087815260200190815260200160002060070160016101000a81548160ff0219169083151502179055506121c76009612efd565b601160009054906101000a900473ffffffffffffffffffffffffffffffffffffffff1673ffffffffffffffffffffffffffffffffffffffff166108fc829081150290604051600060405180830381858888f1935050505015801561222f573d6000803e3d6000fd5b50506123fb565b6000600a54836122469190614800565b90506064816122559190614889565b90506000600a546064612268919061461a565b846122739190614800565b90506064816122829190614889565b90506018600087815260200190815260200160002060030160009054906101000a900473ffffffffffffffffffffffffffffffffffffffff1673ffffffffffffffffffffffffffffffffffffffff166108fc829081150290604051600060405180830381858888f19350505050158015612300573d6000803e3d6000fd5b50336018600088815260200190815260200160002060040160006101000a81548173ffffffffffffffffffffffffffffffffffffffff021916908373ffffffffffffffffffffffffffffffffffffffff16021790555060016018600088815260200190815260200160002060070160016101000a81548160ff02191690831515021790555061238f6009612efd565b601160009054906101000a900473ffffffffffffffffffffffffffffffffffffffff1673ffffffffffffffffffffffffffffffffffffffff166108fc839081150290604051600060405180830381858888f193505050501580156123f7573d6000803e3d6000fd5b5050505b505050600160008190555050565b60008061241f838561306590919063ffffffff16565b905060128161242e9190614b36565b90508091505092915050565b60105481565b60008082905060008151141561245c576000801b915050612465565b60208301519150505b919050565b601480546124779061458a565b80601f01602080910402602001604051908101604052809291908181526020018280546124a39061458a565b80156124f05780601f106124c5576101008083540402835291602001916124f0565b820191906000526020600020905b8154815290600101906020018083116124d357829003601f168201915b505050505081565b600d5481565b6060600061250c6008612eef565b90506000808267ffffffffffffffff81111561252b5761252a613f15565b5b60405190808252806020026020018201604052801561256457816020015b612551613964565b8152602001906001900390816125495790505b50905060005b83811015612749576000600182612581919061464e565b905060006018600083815260200190815260200160002090508060405180610120016040529081600082015481526020016001820160009054906101000a900473ffffffffffffffffffffffffffffffffffffffff1673ffffffffffffffffffffffffffffffffffffffff1673ffffffffffffffffffffffffffffffffffffffff168152602001600282015481526020016003820160009054906101000a900473ffffffffffffffffffffffffffffffffffffffff1673ffffffffffffffffffffffffffffffffffffffff1673ffffffffffffffffffffffffffffffffffffffff1681526020016004820160009054906101000a900473ffffffffffffffffffffffffffffffffffffffff1673ffffffffffffffffffffffffffffffffffffffff1673ffffffffffffffffffffffffffffffffffffffff16815260200160058201548152602001600682015481526020016007820160009054906101000a900460ff161515151581526020016007820160019054906101000a900460ff16151515158152505084868151811061271a576127196145bc565b5b6020026020010181905250600185612732919061464e565b945050508080612741906146a4565b91505061256a565b5080935050505090565b61275b612f97565b73ffffffffffffffffffffffffffffffffffffffff16612779611b45565b73ffffffffffffffffffffffffffffffffffffffff16146127cf576040517f08c379a00000000000000000000000000000000000000000000000000000000081526004016127c6906147a9565b60405180910390fd5b80601160006101000a81548173ffffffffffffffffffffffffffffffffffffffff021916908373ffffffffffffffffffffffffffffffffffffffff16021790555050565b606060006128216008612eef565b905060008060005b838110156128ca573373ffffffffffffffffffffffffffffffffffffffff1660186000600184612859919061464e565b815260200190815260200160002060030160009054906101000a900473ffffffffffffffffffffffffffffffffffffffff1673ffffffffffffffffffffffffffffffffffffffff1614156128b7576001836128b4919061464e565b92505b80806128c2906146a4565b915050612829565b5060008267ffffffffffffffff8111156128e7576128e6613f15565b5b60405190808252806020026020018201604052801561292057816020015b61290d613964565b8152602001906001900390816129055790505b50905060005b84811015612b7c573373ffffffffffffffffffffffffffffffffffffffff1660186000600184612956919061464e565b815260200190815260200160002060030160009054906101000a900473ffffffffffffffffffffffffffffffffffffffff1673ffffffffffffffffffffffffffffffffffffffff161415612b695760006001826129b3919061464e565b905060006018600083815260200190815260200160002090508060405180610120016040529081600082015481526020016001820160009054906101000a900473ffffffffffffffffffffffffffffffffffffffff1673ffffffffffffffffffffffffffffffffffffffff1673ffffffffffffffffffffffffffffffffffffffff168152602001600282015481526020016003820160009054906101000a900473ffffffffffffffffffffffffffffffffffffffff1673ffffffffffffffffffffffffffffffffffffffff1673ffffffffffffffffffffffffffffffffffffffff1681526020016004820160009054906101000a900473ffffffffffffffffffffffffffffffffffffffff1673ffffffffffffffffffffffffffffffffffffffff1673ffffffffffffffffffffffffffffffffffffffff16815260200160058201548152602001600682015481526020016007820160009054906101000a900460ff161515151581526020016007820160019054906101000a900460ff161515151581525050848681518110612b4c57612b4b6145bc565b5b6020026020010181905250600185612b64919061464e565b945050505b8080612b74906146a4565b915050612926565b508094505050505090565b612b8f612f97565b73ffffffffffffffffffffffffffffffffffffffff16612bad611b45565b73ffffffffffffffffffffffffffffffffffffffff1614612c03576040517f08c379a0000000000000000000000000000000000000000000000000000000008152600401612bfa906147a9565b60405180910390fd5b600073ffffffffffffffffffffffffffffffffffffffff168173ffffffffffffffffffffffffffffffffffffffff161415612c73576040517f08c379a0000000000000000000000000000000000000000000000000000000008152600401612c6a90614bf3565b60405180910390fd5b612c7c81612f9f565b50565b60125481565b60606000839050600080600190505b60018351612ca2919061461a565b821015612d09576000612cb687878561307b565b90507fffffffffffffffffffffffffffffffffffffffffffffffffffffffffffffffff811415612ce65750612d09565b8180612cf1906146a4565b925050600181612d01919061464e565b925050612c94565b8067ffffffffffffffff811115612d2357612d22613f15565b5b604051908082528060200260200182016040528015612d5657816020015b6060815260200190600190039081612d415790505b50935060009150600090505b60018351612d70919061461a565b821015612ee6576000612d8487878561307b565b90507fffffffffffffffffffffffffffffffffffffffffffffffffffffffffffffffff811415612db357835190505b60008382612dc1919061461a565b67ffffffffffffffff811115612dda57612dd9613f15565b5b6040519080825280601f01601f191660200182016040528015612e0c5781602001600182028036833780820191505090505b50905060008190506000808690505b84811015612ea257878181518110612e3657612e356145bc565b5b602001015160f81c60f81b838380612e4d906146a4565b945081518110612e6057612e5f6145bc565b5b60200101907effffffffffffffffffffffffffffffffffffffffffffffffffffffffffffff1916908160001a9053508080612e9a906146a4565b915050612e1b565b50600184612eb0919061464e565b955081888680612ebf906146a4565b975081518110612ed257612ed16145bc565b5b602002602001018190525050505050612d62565b50505092915050565b600081600001549050919050565b6001816000016000828254019250508190555050565b612f1b613a1e565b612f23613a1e565b612f3a8585858461317a909392919063ffffffff16565b9150509392505050565b612f5b82846080015161322a90919063ffffffff16565b612f7281846080015161322a90919063ffffffff16565b505050565b6000612f8e8484846001634042994660e01b61324f565b90509392505050565b600033905090565b6000600760009054906101000a900473ffffffffffffffffffffffffffffffffffffffff16905081600760006101000a81548173ffffffffffffffffffffffffffffffffffffffff021916908373ffffffffffffffffffffffffffffffffffffffff1602179055508173ffffffffffffffffffffffffffffffffffffffff168173ffffffffffffffffffffffffffffffffffffffff167f8be0079c531659141344cd1fd0a4f28419497f9722a3daafe3b4186f6b6457e060405160405180910390a35050565b600081836130739190614889565b905092915050565b6000808490506000849050600181511461309857613097614c13565b5b60008490505b825181101561314c57816000815181106130bb576130ba6145bc565b5b602001015160f81c60f81b7effffffffffffffffffffffffffffffffffffffffffffffffffffffffffffff19168382815181106130fb576130fa6145bc565b5b602001015160f81c60f81b7effffffffffffffffffffffffffffffffffffffffffffffffffffffffffffff1916141561313957809350505050613173565b8080613144906146a4565b91505061309e565b507fffffffffffffffffffffffffffffffffffffffffffffffffffffffffffffffff925050505b9392505050565b613182613a1e565b61319285608001516101006134b7565b508385600001818152505082856020019073ffffffffffffffffffffffffffffffffffffffff16908173ffffffffffffffffffffffffffffffffffffffff16815250508185604001907bffffffffffffffffffffffffffffffffffffffffffffffffffffffff191690817bffffffffffffffffffffffffffffffffffffffffffffffffffffffff191681525050849050949350505050565b6132378260038351613521565b61324a818361366690919063ffffffff16565b505050565b600030600554604051602001613266929190614cfb565b604051602081830303815290604052805190602001209050600554856060018181525050856006600083815260200190815260200160002060006101000a81548173ffffffffffffffffffffffffffffffffffffffff021916908373ffffffffffffffffffffffffffffffffffffffff160217905550807fb5e6e01e79f91267dc17b4e6314d5d4d03593d2ceee0fbb452b750bd70ea5af960405160405180910390a2600082600080886000015189602001518a604001518b606001518a8d6080015160000151604051602401613344989796959493929190614d62565b604051602081830303815290604052907bffffffffffffffffffffffffffffffffffffffffffffffffffffffff19166020820180517bffffffffffffffffffffffffffffffffffffffffffffffffffffffff83818316178352505050509050600360009054906101000a900473ffffffffffffffffffffffffffffffffffffffff1673ffffffffffffffffffffffffffffffffffffffff16634000aea08887846040518463ffffffff1660e01b815260040161340293929190614de7565b602060405180830381600087803b15801561341c57600080fd5b505af1158015613430573d6000803e3d6000fd5b505050506040513d601f19601f820116820180604052508101906134549190614e3a565b613493576040517f08c379a000000000000000000000000000000000000000000000000000000000815260040161348a90614ed9565b60405180910390fd5b6001600560008282546134a6919061464e565b925050819055505095945050505050565b6134bf613a8b565b60006020836134ce9190614ef9565b146134fa576020826134e09190614ef9565b60206134ec919061461a565b826134f7919061464e565b91505b81836020018181525050604051808452600081528281016020016040525082905092915050565b6017811161354e576135488160058460ff16901b60ff16178461368890919063ffffffff16565b50613661565b60ff811161359057613573601860058460ff16901b178461368890919063ffffffff16565b5061358a816001856136a89092919063ffffffff16565b50613660565b61ffff81116135d3576135b6601960058460ff16901b178461368890919063ffffffff16565b506135cd816002856136a89092919063ffffffff16565b5061365f565b63ffffffff8111613618576135fb601a60058460ff16901b178461368890919063ffffffff16565b50613612816004856136a89092919063ffffffff16565b5061365e565b67ffffffffffffffff811161365d57613644601b60058460ff16901b178461368890919063ffffffff16565b5061365b816008856136a89092919063ffffffff16565b505b5b5b5b5b505050565b61366e613a8b565b613680838460000151518485516136ca565b905092915050565b613690613a8b565b6136a083846000015151846137b9565b905092915050565b6136b0613a8b565b6136c1848560000151518585613810565b90509392505050565b6136d2613a8b565b82518211156136e057600080fd5b846020015182856136f1919061464e565b11156137265761372585600261371688602001518887613711919061464e565b61389e565b6137209190614800565b6138ba565b5b6000808651805187602083010193508088870111156137455787860182525b60208701925050505b6020841061378c5780518252602082613767919061464e565b9150602081613776919061464e565b9050602084613785919061461a565b935061374e565b60006001856020036101000a03905080198251168184511681811785525050508692505050949350505050565b6137c1613a8b565b836020015183106137e7576137e684600286602001516137e19190614800565b6138ba565b5b8351805160208583010184815381861415613803576001820183525b5050508390509392505050565b613818613a8b565b84602001518483613829919061464e565b1115613851576138508560028685613841919061464e565b61384b9190614800565b6138ba565b5b600060018361010061386391906149ed565b61386d919061461a565b905085518386820101858319825116178152815185880111156138905784870182525b505085915050949350505050565b6000818311156138b0578290506138b4565b8190505b92915050565b6000826000015190506138cd83836134b7565b506138d88382613666565b50505050565b8280546138ea9061458a565b90600052602060002090601f01602090048101928261390c5760008555613953565b82601f1061392557805160ff1916838001178555613953565b82800160010185558215613953579182015b82811115613952578251825591602001919060010190613937565b5b5090506139609190613aa5565b5090565b60405180610120016040528060008152602001600073ffffffffffffffffffffffffffffffffffffffff16815260200160008152602001600073ffffffffffffffffffffffffffffffffffffffff168152602001600073ffffffffffffffffffffffffffffffffffffffff16815260200160008152602001600081526020016000151581526020016000151581525090565b6040518060800160405280600081526020016000815260200160008152602001600081525090565b6040518060a0016040528060008019168152602001600073ffffffffffffffffffffffffffffffffffffffff16815260200160007bffffffffffffffffffffffffffffffffffffffffffffffffffffffff1916815260200160008152602001613a85613a8b565b81525090565b604051806040016040528060608152602001600081525090565b5b80821115613abe576000816000905550600101613aa6565b5090565b6000604051905090565b600080fd5b600080fd5b6000819050919050565b613ae981613ad6565b8114613af457600080fd5b50565b600081359050613b0681613ae0565b92915050565b60008060408385031215613b2357613b22613acc565b5b6000613b3185828601613af7565b9250506020613b4285828601613af7565b9150509250929050565b600081519050919050565b600082825260208201905092915050565b6000819050602082019050919050565b6000819050919050565b613b8b81613b78565b82525050565b600073ffffffffffffffffffffffffffffffffffffffff82169050919050565b6000613bbc82613b91565b9050919050565b613bcc81613bb1565b82525050565b6000613bdd82613b91565b9050919050565b613bed81613bd2565b82525050565b60008115159050919050565b613c0881613bf3565b82525050565b61012082016000820151613c256000850182613b82565b506020820151613c386020850182613bc3565b506040820151613c4b6040850182613b82565b506060820151613c5e6060850182613be4565b506080820151613c716080850182613be4565b5060a0820151613c8460a0850182613b82565b5060c0820151613c9760c0850182613b82565b5060e0820151613caa60e0850182613bff565b50610100820151613cbf610100850182613bff565b50505050565b6000613cd18383613c0e565b6101208301905092915050565b6000602082019050919050565b6000613cf682613b4c565b613d008185613b57565b9350613d0b83613b68565b8060005b83811015613d3c578151613d238882613cc5565b9750613d2e83613cde565b925050600181019050613d0f565b5085935050505092915050565b60006020820190508181036000830152613d638184613ceb565b905092915050565b613d7481613ad6565b82525050565b6000602082019050613d8f6000830184613d6b565b92915050565b613d9e81613bb1565b8114613da957600080fd5b50565b600081359050613dbb81613d95565b92915050565b613dca81613b78565b8114613dd557600080fd5b50565b600081359050613de781613dc1565b92915050565b613df681613bf3565b8114613e0157600080fd5b50565b600081359050613e1381613ded565b92915050565b60008060008060008060c08789031215613e3657613e35613acc565b5b6000613e4489828a01613dac565b9650506020613e5589828a01613dac565b9550506040613e6689828a01613dd8565b9450506060613e7789828a01613dd8565b9350506080613e8889828a01613dd8565b92505060a0613e9989828a01613e04565b9150509295509295509295565b613eaf81613bb1565b82525050565b6000602082019050613eca6000830184613ea6565b92915050565b613ed981613b78565b82525050565b6000602082019050613ef46000830184613ed0565b92915050565b600080fd5b600080fd5b6000601f19601f8301169050919050565b7f4e487b7100000000000000000000000000000000000000000000000000000000600052604160045260246000fd5b613f4d82613f04565b810181811067ffffffffffffffff82111715613f6c57613f6b613f15565b5b80604052505050565b6000613f7f613ac2565b9050613f8b8282613f44565b919050565b600067ffffffffffffffff821115613fab57613faa613f15565b5b613fb482613f04565b9050602081019050919050565b82818337600083830152505050565b6000613fe3613fde84613f90565b613f75565b905082815260208101848484011115613fff57613ffe613eff565b5b61400a848285613fc1565b509392505050565b600082601f83011261402757614026613efa565b5b8135614037848260208601613fd0565b91505092915050565b6000806040838503121561405757614056613acc565b5b600083013567ffffffffffffffff81111561407557614074613ad1565b5b61408185828601614012565b925050602061409285828601613dd8565b9150509250929050565b6000602082840312156140b2576140b1613acc565b5b60006140c084828501613af7565b91505092915050565b6000602082840312156140df576140de613acc565b5b60006140ed84828501613dd8565b91505092915050565b60006020828403121561410c5761410b613acc565b5b600061411a84828501613dac565b91505092915050565b600081519050919050565b600082825260208201905092915050565b60005b8381101561415d578082015181840152602081019050614142565b8381111561416c576000848401525b50505050565b600061417d82614123565b614187818561412e565b935061419781856020860161413f565b6141a081613f04565b840191505092915050565b600060208201905081810360008301526141c58184614172565b905092915050565b600081519050919050565b600082825260208201905092915050565b60006141f4826141cd565b6141fe81856141d8565b935061420e81856020860161413f565b61421781613f04565b840191505092915050565b6000602082019050818103600083015261423c81846141e9565b905092915050565b6000806040838503121561425b5761425a613acc565b5b600061426985828601613dd8565b925050602061427a85828601613dd8565b9150509250929050565b60808201600082015161429a6000850182613b82565b5060208201516142ad6020850182613b82565b5060408201516142c06040850182613b82565b5060608201516142d36060850182613b82565b50505050565b60006080820190506142ee6000830184614284565b92915050565b6101208201600082015161430b6000850182613b82565b50602082015161431e6020850182613bc3565b5060408201516143316040850182613b82565b5060608201516143446060850182613be4565b5060808201516143576080850182613be4565b5060a082015161436a60a0850182613b82565b5060c082015161437d60c0850182613b82565b5060e082015161439060e0850182613bff565b506101008201516143a5610100850182613bff565b50505050565b6000610120820190506143c160008301846142f4565b92915050565b6000602082840312156143dd576143dc613acc565b5b600082013567ffffffffffffffff8111156143fb576143fa613ad1565b5b61440784828501614012565b91505092915050565b7f536f75726365206d75737420626520746865206f7261636c65206f662074686560008201527f2072657175657374000000000000000000000000000000000000000000000000602082015250565b600061446c6028836141d8565b915061447782614410565b604082019050919050565b6000602082019050818103600083015261449b8161445f565b9050919050565b60006144b56144b084613f90565b613f75565b9050828152602081018484840111156144d1576144d0613eff565b5b6144dc84828561413f565b509392505050565b600082601f8301126144f9576144f8613efa565b5b81516145098482602086016144a2565b91505092915050565b60006020828403121561452857614527613acc565b5b600082015167ffffffffffffffff81111561454657614545613ad1565b5b614552848285016144e4565b91505092915050565b7f4e487b7100000000000000000000000000000000000000000000000000000000600052602260045260246000fd5b600060028204905060018216806145a257607f821691505b602082108114156145b6576145b561455b565b5b50919050565b7f4e487b7100000000000000000000000000000000000000000000000000000000600052603260045260246000fd5b7f4e487b7100000000000000000000000000000000000000000000000000000000600052601160045260246000fd5b600061462582613b78565b915061463083613b78565b925082821015614643576146426145eb565b5b828203905092915050565b600061465982613b78565b915061466483613b78565b9250827fffffffffffffffffffffffffffffffffffffffffffffffffffffffffffffffff03821115614699576146986145eb565b5b828201905092915050565b60006146af82613b78565b91507fffffffffffffffffffffffffffffffffffffffffffffffffffffffffffffffff8214156146e2576146e16145eb565b5b600182019050919050565b6146f681613bf3565b82525050565b600060c0820190506147116000830189613ea6565b61471e6020830188613ea6565b61472b6040830187613ed0565b6147386060830186613ed0565b61474560808301856146ed565b61475260a08301846146ed565b979650505050505050565b7f4f776e61626c653a2063616c6c6572206973206e6f7420746865206f776e6572600082015250565b60006147936020836141d8565b915061479e8261475d565b602082019050919050565b600060208201905081810360008301526147c281614786565b9050919050565b600060ff82169050919050565b60006147e1826147c9565b915060ff8214156147f5576147f46145eb565b5b600182019050919050565b600061480b82613b78565b915061481683613b78565b9250817fffffffffffffffffffffffffffffffffffffffffffffffffffffffffffffffff048311821515161561484f5761484e6145eb565b5b828202905092915050565b7f4e487b7100000000000000000000000000000000000000000000000000000000600052601260045260246000fd5b600061489482613b78565b915061489f83613b78565b9250826148af576148ae61485a565b5b828204905092915050565b60008160011c9050919050565b6000808291508390505b6001851115614911578086048111156148ed576148ec6145eb565b5b60018516156148fc5780820291505b808102905061490a856148ba565b94506148d1565b94509492505050565b60008261492a57600190506149e6565b8161493857600090506149e6565b816001811461494e576002811461495857614987565b60019150506149e6565b60ff84111561496a576149696145eb565b5b8360020a915084821115614981576149806145eb565b5b506149e6565b5060208310610133831016604e8410600b84101617156149bc5782820a9050838111156149b7576149b66145eb565b5b6149e6565b6149c984848460016148c7565b925090508184048111156149e0576149df6145eb565b5b81810290505b9392505050565b60006149f882613b78565b9150614a0383613b78565b9250614a307fffffffffffffffffffffffffffffffffffffffffffffffffffffffffffffffff848461491a565b905092915050565b7f5265656e7472616e637947756172643a207265656e7472616e742063616c6c00600082015250565b6000614a6e601f836141d8565b9150614a7982614a38565b602082019050919050565b60006020820190508181036000830152614a9d81614a61565b9050919050565b7f506c65617365207375626d6974207468652061736b696e67207072696365206960008201527f6e206f7264657220746f20636f6d706c65746520746865207075726368617365602082015250565b6000614b006040836141d8565b9150614b0b82614aa4565b604082019050919050565b60006020820190508181036000830152614b2f81614af3565b9050919050565b6000614b4182613b78565b9150614b4c836147c9565b9250614b797fffffffffffffffffffffffffffffffffffffffffffffffffffffffffffffffff848461491a565b905092915050565b7f4f776e61626c653a206e6577206f776e657220697320746865207a65726f206160008201527f6464726573730000000000000000000000000000000000000000000000000000602082015250565b6000614bdd6026836141d8565b9150614be882614b81565b604082019050919050565b60006020820190508181036000830152614c0c81614bd0565b9050919050565b7f4e487b7100000000000000000000000000000000000000000000000000000000600052600160045260246000fd5b6000819050919050565b6000614c67614c62614c5d84613b91565b614c42565b613b91565b9050919050565b6000614c7982614c4c565b9050919050565b6000614c8b82614c6e565b9050919050565b60008160601b9050919050565b6000614caa82614c92565b9050919050565b6000614cbc82614c9f565b9050919050565b614cd4614ccf82614c80565b614cb1565b82525050565b6000819050919050565b614cf5614cf082613b78565b614cda565b82525050565b6000614d078285614cc3565b601482019150614d178284614ce4565b6020820191508190509392505050565b60007fffffffff0000000000000000000000000000000000000000000000000000000082169050919050565b614d5c81614d27565b82525050565b600061010082019050614d78600083018b613ea6565b614d85602083018a613ed0565b614d926040830189613d6b565b614d9f6060830188613ea6565b614dac6080830187614d53565b614db960a0830186613ed0565b614dc660c0830185613ed0565b81810360e0830152614dd88184614172565b90509998505050505050505050565b6000606082019050614dfc6000830186613ea6565b614e096020830185613ed0565b8181036040830152614e1b8184614172565b9050949350505050565b600081519050614e3481613ded565b92915050565b600060208284031215614e5057614e4f613acc565b5b6000614e5e84828501614e25565b91505092915050565b7f756e61626c6520746f207472616e73666572416e6443616c6c20746f206f726160008201527f636c650000000000000000000000000000000000000000000000000000000000602082015250565b6000614ec36023836141d8565b9150614ece82614e67565b604082019050919050565b60006020820190508181036000830152614ef281614eb6565b9050919050565b6000614f0482613b78565b9150614f0f83613b78565b925082614f1f57614f1e61485a565b5b82820690509291505056fea26469706673582212209622641801a31cbab3c74a226c57160e647fd4f0f821471e91fd641d55727d3864736f6c63430008090033",
	"linkReferences": {},
	"deployedLinkReferences": {}
}